{
  "_format": "hh-sol-artifact-1",
  "contractName": "Raffle",
  "sourceName": "contracts/Raffle.sol",
  "abi": [
    {
      "inputs": [
        {
          "internalType": "address",
          "name": "vrfCoordinatorV2",
          "type": "address"
        },
        {
          "internalType": "uint256",
          "name": "entranceFee",
          "type": "uint256"
        },
        {
          "internalType": "bytes32",
          "name": "gasLane",
          "type": "bytes32"
        },
        {
          "internalType": "uint64",
          "name": "subscriptionId",
          "type": "uint64"
        },
        {
          "internalType": "uint32",
          "name": "callbackGasLimit",
          "type": "uint32"
        },
        {
          "internalType": "uint256",
          "name": "interval",
          "type": "uint256"
        }
      ],
      "stateMutability": "nonpayable",
      "type": "constructor"
    },
    {
      "inputs": [
        {
          "internalType": "address",
          "name": "have",
          "type": "address"
        },
        {
          "internalType": "address",
          "name": "want",
          "type": "address"
        }
      ],
      "name": "OnlyCoordinatorCanFulfill",
      "type": "error"
    },
    {
      "inputs": [],
      "name": "Raffle__NotEnoughETHEntered",
      "type": "error"
    },
    {
      "inputs": [],
      "name": "Raffle__RaffleNotOpen",
      "type": "error"
    },
    {
      "inputs": [],
      "name": "Raffle__TransferFailed",
      "type": "error"
    },
    {
      "inputs": [
        {
          "internalType": "uint256",
          "name": "currentBalance",
          "type": "uint256"
        },
        {
          "internalType": "uint256",
          "name": "numPlayers",
          "type": "uint256"
        },
        {
          "internalType": "uint256",
          "name": "raffleState",
          "type": "uint256"
        }
      ],
      "name": "Raffle__UpkeepNotNeeded",
      "type": "error"
    },
    {
      "anonymous": false,
      "inputs": [
        {
          "indexed": true,
          "internalType": "address",
          "name": "player",
          "type": "address"
        }
      ],
      "name": "RaffleEnter",
      "type": "event"
    },
    {
      "anonymous": false,
      "inputs": [
        {
          "indexed": true,
          "internalType": "uint256",
          "name": "requestId",
          "type": "uint256"
        }
      ],
      "name": "RequestedRaffleWinner",
      "type": "event"
    },
    {
      "anonymous": false,
      "inputs": [
        {
          "indexed": true,
          "internalType": "address",
          "name": "player",
          "type": "address"
        }
      ],
      "name": "WinnerPicked",
      "type": "event"
    },
    {
      "inputs": [
        {
          "internalType": "bytes",
          "name": "",
          "type": "bytes"
        }
      ],
      "name": "checkUpkeep",
      "outputs": [
        {
          "internalType": "bool",
          "name": "upkeepNeeded",
          "type": "bool"
        },
        {
          "internalType": "bytes",
          "name": "",
          "type": "bytes"
        }
      ],
      "stateMutability": "view",
      "type": "function"
    },
    {
      "inputs": [],
      "name": "enterRaffle",
      "outputs": [],
      "stateMutability": "payable",
      "type": "function"
    },
    {
      "inputs": [],
      "name": "getEntranceFee",
      "outputs": [
        {
          "internalType": "uint256",
          "name": "",
          "type": "uint256"
        }
      ],
      "stateMutability": "view",
      "type": "function"
    },
    {
      "inputs": [],
      "name": "getInterval",
      "outputs": [
        {
          "internalType": "uint256",
          "name": "",
          "type": "uint256"
        }
      ],
      "stateMutability": "view",
      "type": "function"
    },
    {
      "inputs": [],
      "name": "getLastTimeStamp",
      "outputs": [
        {
          "internalType": "uint256",
          "name": "",
          "type": "uint256"
        }
      ],
      "stateMutability": "view",
      "type": "function"
    },
    {
      "inputs": [],
      "name": "getNumWords",
      "outputs": [
        {
          "internalType": "uint256",
          "name": "",
          "type": "uint256"
        }
      ],
      "stateMutability": "pure",
      "type": "function"
    },
    {
      "inputs": [],
      "name": "getNumberOfPlayers",
      "outputs": [
        {
          "internalType": "uint256",
          "name": "",
          "type": "uint256"
        }
      ],
      "stateMutability": "view",
      "type": "function"
    },
    {
      "inputs": [
        {
          "internalType": "uint256",
          "name": "index",
          "type": "uint256"
        }
      ],
      "name": "getPlayer",
      "outputs": [
        {
          "internalType": "address",
          "name": "",
          "type": "address"
        }
      ],
      "stateMutability": "view",
      "type": "function"
    },
    {
      "inputs": [],
      "name": "getRaffleState",
      "outputs": [
        {
          "internalType": "enum Raffle.RaffleState",
          "name": "",
          "type": "uint8"
        }
      ],
      "stateMutability": "view",
      "type": "function"
    },
    {
      "inputs": [],
      "name": "getRecentWinner",
      "outputs": [
        {
          "internalType": "address",
          "name": "",
          "type": "address"
        }
      ],
      "stateMutability": "view",
      "type": "function"
    },
    {
      "inputs": [],
      "name": "getRequestConfirmations",
      "outputs": [
        {
          "internalType": "uint256",
          "name": "",
          "type": "uint256"
        }
      ],
      "stateMutability": "pure",
      "type": "function"
    },
    {
      "inputs": [
        {
          "internalType": "bytes",
          "name": "",
          "type": "bytes"
        }
      ],
      "name": "performUpkeep",
      "outputs": [],
      "stateMutability": "nonpayable",
      "type": "function"
    },
    {
      "inputs": [
        {
          "internalType": "uint256",
          "name": "requestId",
          "type": "uint256"
        },
        {
          "internalType": "uint256[]",
          "name": "randomWords",
          "type": "uint256[]"
        }
      ],
      "name": "rawFulfillRandomWords",
      "outputs": [],
      "stateMutability": "nonpayable",
      "type": "function"
    }
  ],
  "bytecode": "0x6101606040523480156200001257600080fd5b506040516200185538038062001855833981810160405281019062000038919062000294565b858073ffffffffffffffffffffffffffffffffffffffff1660808173ffffffffffffffffffffffffffffffffffffffff1681525050508460a081815250508573ffffffffffffffffffffffffffffffffffffffff1660c08173ffffffffffffffffffffffffffffffffffffffff16815250508360e081815250508267ffffffffffffffff166101008167ffffffffffffffff16815250508163ffffffff166101208163ffffffff16815250506000600160146101000a81548160ff021916908360018111156200010d576200010c62000330565b5b0217905550426002819055508061014081815250505050505050506200035f565b600080fd5b600073ffffffffffffffffffffffffffffffffffffffff82169050919050565b6000620001608262000133565b9050919050565b620001728162000153565b81146200017e57600080fd5b50565b600081519050620001928162000167565b92915050565b6000819050919050565b620001ad8162000198565b8114620001b957600080fd5b50565b600081519050620001cd81620001a2565b92915050565b6000819050919050565b620001e881620001d3565b8114620001f457600080fd5b50565b6000815190506200020881620001dd565b92915050565b600067ffffffffffffffff82169050919050565b6200022d816200020e565b81146200023957600080fd5b50565b6000815190506200024d8162000222565b92915050565b600063ffffffff82169050919050565b6200026e8162000253565b81146200027a57600080fd5b50565b6000815190506200028e8162000263565b92915050565b60008060008060008060c08789031215620002b457620002b36200012e565b5b6000620002c489828a0162000181565b9650506020620002d789828a01620001bc565b9550506040620002ea89828a01620001f7565b9450506060620002fd89828a016200023c565b93505060806200031089828a016200027d565b92505060a06200032389828a01620001bc565b9150509295509295509295565b7f4e487b7100000000000000000000000000000000000000000000000000000000600052602160045260246000fd5b60805160a05160c05160e051610100516101205161014051611486620003cf600039600081816107ec01526108950152600061069b01526000610678015260006106570152600061061b0152600081816102fa01526103f7015260008181610337015261038b01526114866000f3fe6080604052600436106100c25760003560e01c806353a2c19a1161007f57806391ad27b41161005957806391ad27b414610238578063c1c244e814610263578063e55ae4e81461028e578063fd6673f5146102cb576100c2565b806353a2c19a146101a45780635f1b0fd8146101cf5780636e04ff0d146101fa576100c2565b806309bc33a7146100c7578063115cbaf5146100f25780631fe543e31461011d5780632cfcc539146101465780634585e33b14610150578063473f1ddc14610179575b600080fd5b3480156100d357600080fd5b506100dc6102f6565b6040516100e99190610c07565b60405180910390f35b3480156100fe57600080fd5b5061010761031e565b6040516101149190610c99565b60405180910390f35b34801561012957600080fd5b50610144600480360381019061013f9190610e4d565b610335565b005b61014e6103f5565b005b34801561015c57600080fd5b5061017760048036038101906101729190610f04565b610564565b005b34801561018557600080fd5b5061018e610763565b60405161019b9190610f92565b60405180910390f35b3480156101b057600080fd5b506101b961078d565b6040516101c69190610c07565b60405180910390f35b3480156101db57600080fd5b506101e461079c565b6040516101f19190610c07565b60405180910390f35b34801561020657600080fd5b50610221600480360381019061021c9190611062565b6107a9565b60405161022f92919061114e565b60405180910390f35b34801561024457600080fd5b5061024d610891565b60405161025a9190610c07565b60405180910390f35b34801561026f57600080fd5b506102786108b9565b6040516102859190610c07565b60405180910390f35b34801561029a57600080fd5b506102b560048036038101906102b0919061117e565b6108c3565b6040516102c29190610f92565b60405180910390f35b3480156102d757600080fd5b506102e061090a565b6040516102ed9190610c07565b60405180910390f35b60007f0000000000000000000000000000000000000000000000000000000000000000905090565b6000600160149054906101000a900460ff16905090565b7f000000000000000000000000000000000000000000000000000000000000000073ffffffffffffffffffffffffffffffffffffffff163373ffffffffffffffffffffffffffffffffffffffff16146103e757337f00000000000000000000000000000000000000000000000000000000000000006040517f1cf993f40000000000000000000000000000000000000000000000000000000081526004016103de9291906111ab565b60405180910390fd5b6103f18282610916565b5050565b7f000000000000000000000000000000000000000000000000000000000000000034101561044f576040517fbd4e069500000000000000000000000000000000000000000000000000000000815260040160405180910390fd5b6000600181111561046357610462610c22565b5b600160149054906101000a900460ff16600181111561048557610484610c22565b5b146104bc576040517fd24a271400000000000000000000000000000000000000000000000000000000815260040160405180910390fd5b6000339080600181540180825580915050600190039060005260206000200160009091909190916101000a81548173ffffffffffffffffffffffffffffffffffffffff021916908373ffffffffffffffffffffffffffffffffffffffff1602179055503373ffffffffffffffffffffffffffffffffffffffff167f0805e1d667bddb8a95f0f09880cf94f403fb596ce79928d9f29b74203ba284d460405160405180910390a2565b600061057e604051806020016040528060008152506107a9565b509050806105ed5747600080549050600160149054906101000a900460ff1660018111156105af576105ae610c22565b5b6040517f584327aa0000000000000000000000000000000000000000000000000000000081526004016105e4939291906111d4565b60405180910390fd5b60018060146101000a81548160ff0219169083600181111561061257610611610c22565b5b021790555060007f000000000000000000000000000000000000000000000000000000000000000073ffffffffffffffffffffffffffffffffffffffff16635d3b1d307f00000000000000000000000000000000000000000000000000000000000000007f000000000000000000000000000000000000000000000000000000000000000060037f000000000000000000000000000000000000000000000000000000000000000060016040518663ffffffff1660e01b81526004016106dc959493929190611283565b602060405180830381600087803b1580156106f657600080fd5b505af115801561070a573d6000803e3d6000fd5b505050506040513d601f19601f8201168201806040525081019061072e91906112eb565b9050807fcd6e45c8998311cab7e9d4385596cac867e20a0587194b954fa3a731c93ce78b60405160405180910390a250505050565b6000600160009054906101000a900473ffffffffffffffffffffffffffffffffffffffff16905090565b6000600163ffffffff16905090565b6000600361ffff16905090565b600060606000600160149054906101000a900460ff1660018111156107d1576107d0610c22565b5b600060018111156107e5576107e4610c22565b5b14905060007f0000000000000000000000000000000000000000000000000000000000000000600254426108199190611347565b119050600080600080549050119050600080471190508280156108395750835b80156108425750805b801561084b5750815b9550856040518060400160405280600381526020017f30783000000000000000000000000000000000000000000000000000000000008152509550955050505050915091565b60007f0000000000000000000000000000000000000000000000000000000000000000905090565b6000600254905090565b60008082815481106108d8576108d761137b565b5b9060005260206000200160009054906101000a900473ffffffffffffffffffffffffffffffffffffffff169050919050565b60008080549050905090565b60008080549050826000815181106109315761093061137b565b5b602002602001015161094391906113d9565b9050600080828154811061095a5761095961137b565b5b9060005260206000200160009054906101000a900473ffffffffffffffffffffffffffffffffffffffff16905080600160006101000a81548173ffffffffffffffffffffffffffffffffffffffff021916908373ffffffffffffffffffffffffffffffffffffffff1602179055506000600160146101000a81548160ff021916908360018111156109ee576109ed610c22565b5b0217905550600067ffffffffffffffff811115610a0e57610a0d610d0a565b5b604051908082528060200260200182016040528015610a3c5781602001602082028036833780820191505090505b5060009080519060200190610a52929190610b47565b504260028190555060008173ffffffffffffffffffffffffffffffffffffffff1647604051610a809061143b565b60006040518083038185875af1925050503d8060008114610abd576040519150601f19603f3d011682016040523d82523d6000602084013e610ac2565b606091505b5050905080610afd576040517fa1d04b3900000000000000000000000000000000000000000000000000000000815260040160405180910390fd5b8173ffffffffffffffffffffffffffffffffffffffff167f5b690ec4a06fe979403046eaeea5b3ce38524683c3001f662c8b5a829632f7df60405160405180910390a25050505050565b828054828255906000526020600020908101928215610bc0579160200282015b82811115610bbf5782518260006101000a81548173ffffffffffffffffffffffffffffffffffffffff021916908373ffffffffffffffffffffffffffffffffffffffff16021790555091602001919060010190610b67565b5b509050610bcd9190610bd1565b5090565b5b80821115610bea576000816000905550600101610bd2565b5090565b6000819050919050565b610c0181610bee565b82525050565b6000602082019050610c1c6000830184610bf8565b92915050565b7f4e487b7100000000000000000000000000000000000000000000000000000000600052602160045260246000fd5b60028110610c6257610c61610c22565b5b50565b6000819050610c7382610c51565b919050565b6000610c8382610c65565b9050919050565b610c9381610c78565b82525050565b6000602082019050610cae6000830184610c8a565b92915050565b6000604051905090565b600080fd5b600080fd5b610cd181610bee565b8114610cdc57600080fd5b50565b600081359050610cee81610cc8565b92915050565b600080fd5b6000601f19601f8301169050919050565b7f4e487b7100000000000000000000000000000000000000000000000000000000600052604160045260246000fd5b610d4282610cf9565b810181811067ffffffffffffffff82111715610d6157610d60610d0a565b5b80604052505050565b6000610d74610cb4565b9050610d808282610d39565b919050565b600067ffffffffffffffff821115610da057610d9f610d0a565b5b602082029050602081019050919050565b600080fd5b6000610dc9610dc484610d85565b610d6a565b90508083825260208201905060208402830185811115610dec57610deb610db1565b5b835b81811015610e155780610e018882610cdf565b845260208401935050602081019050610dee565b5050509392505050565b600082601f830112610e3457610e33610cf4565b5b8135610e44848260208601610db6565b91505092915050565b60008060408385031215610e6457610e63610cbe565b5b6000610e7285828601610cdf565b925050602083013567ffffffffffffffff811115610e9357610e92610cc3565b5b610e9f85828601610e1f565b9150509250929050565b600080fd5b60008083601f840112610ec457610ec3610cf4565b5b8235905067ffffffffffffffff811115610ee157610ee0610ea9565b5b602083019150836001820283011115610efd57610efc610db1565b5b9250929050565b60008060208385031215610f1b57610f1a610cbe565b5b600083013567ffffffffffffffff811115610f3957610f38610cc3565b5b610f4585828601610eae565b92509250509250929050565b600073ffffffffffffffffffffffffffffffffffffffff82169050919050565b6000610f7c82610f51565b9050919050565b610f8c81610f71565b82525050565b6000602082019050610fa76000830184610f83565b92915050565b600080fd5b600067ffffffffffffffff821115610fcd57610fcc610d0a565b5b610fd682610cf9565b9050602081019050919050565b82818337600083830152505050565b600061100561100084610fb2565b610d6a565b90508281526020810184848401111561102157611020610fad565b5b61102c848285610fe3565b509392505050565b600082601f83011261104957611048610cf4565b5b8135611059848260208601610ff2565b91505092915050565b60006020828403121561107857611077610cbe565b5b600082013567ffffffffffffffff81111561109657611095610cc3565b5b6110a284828501611034565b91505092915050565b60008115159050919050565b6110c0816110ab565b82525050565b600081519050919050565b600082825260208201905092915050565b60005b838110156111005780820151818401526020810190506110e5565b8381111561110f576000848401525b50505050565b6000611120826110c6565b61112a81856110d1565b935061113a8185602086016110e2565b61114381610cf9565b840191505092915050565b600060408201905061116360008301856110b7565b81810360208301526111758184611115565b90509392505050565b60006020828403121561119457611193610cbe565b5b60006111a284828501610cdf565b91505092915050565b60006040820190506111c06000830185610f83565b6111cd6020830184610f83565b9392505050565b60006060820190506111e96000830186610bf8565b6111f66020830185610bf8565b6112036040830184610bf8565b949350505050565b6000819050919050565b61121e8161120b565b82525050565b600067ffffffffffffffff82169050919050565b61124181611224565b82525050565b600061ffff82169050919050565b61125e81611247565b82525050565b600063ffffffff82169050919050565b61127d81611264565b82525050565b600060a0820190506112986000830188611215565b6112a56020830187611238565b6112b26040830186611255565b6112bf6060830185611274565b6112cc6080830184611274565b9695505050505050565b6000815190506112e581610cc8565b92915050565b60006020828403121561130157611300610cbe565b5b600061130f848285016112d6565b91505092915050565b7f4e487b7100000000000000000000000000000000000000000000000000000000600052601160045260246000fd5b600061135282610bee565b915061135d83610bee565b9250828210156113705761136f611318565b5b828203905092915050565b7f4e487b7100000000000000000000000000000000000000000000000000000000600052603260045260246000fd5b7f4e487b7100000000000000000000000000000000000000000000000000000000600052601260045260246000fd5b60006113e482610bee565b91506113ef83610bee565b9250826113ff576113fe6113aa565b5b828206905092915050565b600081905092915050565b50565b600061142560008361140a565b915061143082611415565b600082019050919050565b600061144682611418565b915081905091905056fea2646970667358221220ca27456721d2cb73cef7b4bc8a5ce10dd9c7cf364b6d44282b6217ed012c803764736f6c63430008090033",
  "linkReferences": {},
  "deployedLinkReferences": {}
}